:040000000CEF00F011
:10000800FACF06F0FBCF07F0E9CF08F059ED04F07E
:040018007FEF05F081
:10080000000A0D456E766961646F3A200000000EA3
:10081000196E1750800AF36E800EF35C000ED8B488
:10082000165CD8B006D0166C171ED8B0172A010E69
:10083000196E1550800AF36E800EF35C000ED8B46A
:10084000145CD8B006D0146C151ED8B0152A010E51
:10085000191A000E1B6E000E1A6E17501610D8B41F
:100860001CD0010E186E04D0D89016361736182AF0
:1008700017AEFAD7D8901A361B361650145C17509C
:100880001558D8A005D01650145E1750155A1A8066
:10089000D89017321632182EEDD71950D8B404D08C
:1008A0001A6C1B1ED8B01B2A1AC014F01BC015F0FE
:1008B00012000600EACF09F0E1CF0AF0E2CF0BF018
:1008C000D9CF0CF0DACF0DF0F3CF0EF0F4CF0FF05C
:1008D000F6CF10F0F7CF11F0F8CF12F0F5CF13F0FC
:1008E00096EC05F0406EACA2FED7080E036E010E2A
:1008F000026E00EC05F0ACA2FED74050BCEC05F057
:100900009E9A13C0F5FF12C0F8FF11C0F7FF10C088
:10091000F6FF0FC0F4FF0EC0F3FF0DC0DAFF0CC0EE
:10092000D9FF0BC0E2FF0AC0E1FF09C0EAFF08C01F
:10093000E9FF07C0FBFF06C0FAFF1100196E000EA9
:10094000AC6E000EAB6E19B0AC8819A202D0AC8CA4
:10095000AB8C19B4AC8E19A602D0AB8801D0AB8A8F
:1009600019B8AC849E9819BAAB8619AC02D09D8A8E
:1009700001D09D9A9E9A19AE02D09D8801D09D9873
:1009800014C0AFFF15C016F016C017F0186A175044
:10099000B06EAC8AAB8E949C948EACB8ACBE01D0D9
:1009A000948C1200ACA2FED715C0F6FF16C0F7FF5C
:1009B000F86A070EF76403D00800F55005D0F6CFAB
:1009C000E9FFF7CFEAFFEF50B3EC05F01550176ED3
:1009D0001650186E154A162A17C0F6FF18C0F7FFF2
:1009E000F86A070EF76403D00800F55005D0F6CF7B
:1009F000E9FFF7CFEAFFEF500009D8B41200D2D7D1
:100A0000ACA2FED702C0F6FF03C0F7FFF86A070EDC
:100A1000F76403D00800F55005D0F6CFE9FFF7CF13
:100A2000EAFFEF50BCEC05F00250046E0350056E77
:100A3000024A032A04C0F6FF05C0F7FFF86A070E52
:100A4000F76403D00800F55005D0F6CFE9FFF7CFE3
:100A5000EAFFEF500009D8B41200D2D7000E946E0E
:100A60004F0EAB16AC9ACF0E9D167C0E236E020E67
:100A7000226E700E216E21C014F022C015F023509A
:100A80009EEC04F0FE0E246E2450C5EC05F0F28CB2
:100A9000F28EACA2FED7000E166E250E156ED2ECAD
:100AA00004F08270000E1D6EFA0E1C6E5AEC05F0FA
:100AB0008272F7D71CC014F01DC015F0000E176E1F
:100AC0000A0E166E07EC04F014C01FF015C020F0DB
:100AD0000BD09C0E1E6ED70EE82EFED71E2EFCD716
:100AE00000F01F06D8A020062050800AF36E800E6A
:100AF000F35C010ED8B41F5CD8A01200EAD7416A9B
:100B0000406A4A0EF66E0B0EF76E000EF86E00EE9F
:100B100025F010EE1BF00900F5CFEEFFE550E15097
:100B2000FAE1000EF86E00012EEF05F0F20E41160C
:100B3000ABAC03D04190ABB04180ABB44184ABB21D
:100B40004186AECF01F001501200434F4D554E4942
:100B5000434143494F4E2053415449534641435426
:100B60004F5249410000146EACAC03D0AC9041B27E
:100B7000AC8014C0ADFF1200016EACAC03D0AC90E1
:100B800041B2AC8001C0ADFF1200146E14C0B8FFBA
:020B9000120051
:020000040020DA
:08000000FFFFFFFFFFFFFFFF00
:020000040030CA
:0E000000040E201EFF8080FF0FC00FE00F4097
:00000001FF
