:040000000CEF00F011
:10000800FACF04F0FBCF05F0E9CF06F060ED00F081
:1000180025EF01F0000E176E1550800AF36E800E62
:10002800F35C000ED8B4145CD8B006D0146C151E5E
:10003800D8B0152A010E176E1350800AF36E800E81
:10004800F35C000ED8B4125CD8B006D0126C131E44
:10005800D8B0132A010E171A000E196E000E186E6A
:1000680015501410D8B41CD0010E166E04D0D890B8
:1000780014361536162A15AEFAD7D890183619360A
:100088001450125C15501358D8A005D01450125EA5
:100098001550135A1880D89015321432162EEDD7F1
:1000A8001750D8B404D0186C191ED8B0192A18C023
:1000B80012F019C013F012000600EACF07F0E1CFE2
:1000C80008F0E2CF09F0D9CF0AF0DACF0BF0F3CF7E
:1000D8000CF0F4CF0DF0F6CF0EF0F7CF0FF0F8CF0D
:1000E80010F0F5CF11F060EC01F02B6E8270ACA22D
:1000F800FED7000E036E2B0E026E4DEC01F09E9A99
:1001080011C0F5FF10C0F8FF0FC0F7FF0EC0F6FFD3
:100118000DC0F4FF0CC0F3FF0BC0DAFF0AC0D9FF13
:1001280009C0E2FF08C0E1FF07C0EAFF06C0E9FF17
:1001380005C0FBFF04C0FAFF1100176E000EAC6E7D
:10014800000EAB6E17B0AC8817A202D0AC8CAB8C8B
:1001580017B4AC8E17A602D0AB8801D0AB8A17B8FB
:10016800AC849E9817BAAB8617AC02D09D8A01D092
:100178009D9A9E9A17AE02D09D8801D09D9812C074
:10018800AFFF13C014F014C015F0166A1550B06E06
:10019800AC8AAB8E949C948EACB8ACBE01D0948CD7
:1001A8001200000E946E4F0EAB16AC9ACF0E9D1631
:1001B8007C0E216E000E206E670E1F6E1FC012F09F
:1001C80020C013F02150A1EC00F0FE0E226E225048
:1001D80081EC01F0F28CF28EACA2FED7000E146E08
:1001E800230E136E3AEC01F0000E1B6EFA0E1A6E17
:1001F80000EC01F08272F8D71AC012F01BC013F09D
:10020800000E156E0A0E146E0EEC00F012C01DF0F2
:1002180013C01EF00BD09C0E1C6ED70EE82EFED716
:100228001C2EFCD700F01D06D8A01E061E50800A02
:10023800F36E800EF35C010ED8B41D5CD8A01200DA
:10024800EAD72B6A2A6A0A0EF66E030EF76E000EBC
:10025800F86E00EE23F010EE07F00900F5CFEEFF80
:10026800E550E150FAE10001D5EF00F0ACA2FED76D
:1002780013C0D9FF14C0DAFFDF506FEC01F013C0D0
:10028800D9FF14C0DAFF134A142ADF50D8B4120079
:10029800EDD7ACA2FED702C0D9FF03C0DAFFDF500A
:1002A80078EC01F002C0D9FF03C0DAFF024A032A42
:1002B800DF50D8B41200EDD7F20E2A16ABAC03D03B
:1002C8002A90ABB02A80ABB42A84ABB22A86AECFD0
:1002D80001F001501200126EACAC03D0AC902AB2FF
:1002E800AC8012C0ADFF1200016EACAC03D0AC9074
:1002F8002AB2AC8001C0ADFF1200126E12C0B8FF66
:0A0308001200484F4C410A0D00009E
:020000040020DA
:08000000FFFFFFFFFFFFFFFF00
:020000040030CA
:0E000000040E201EFF8080FF0FC00FE00F4097
:00000001FF
